:020000040800F2
:10000000C032002001010008AF280008BD2500080B
:10001000AD28000885110008414F000800000000CD
:10002000000000000000000000000000113900087E
:10003000BD11000800000000B1280008914B000825
:100040001B0100081B0100081B0100081B01000820
:100050001B0100081B010008BF1100081B0100085C
:10006000D11100081B0100081B0100081B0100083A
:100070001B0100081B0100081B0100081B010008F0
:100080001B0100081B0100081B0100081B010008E0
:100090001B0100081B0100081B0100081B010008D0
:1000A0001B0100081B0100081B0100081B010008C0
:1000B0001B010008394C00081B0100081B01000847
:1000C0001B0100081B0100081B0100081B010008A0
:1000D0001B0100081B0100081B0100081B01000890
:1000E0001B0100081B0100081B010008DFF80CD0F1
:1000F00000F0CCF80048004705800008C03200201E
:100100000648804706480047FEE7FEE7FEE7FEE7B1
:10011000FEE7FEE7FEE7FEE7FEE7FEE7F14B00083D
:10012000ED000008202A04DB203A21FA02F0002129
:10013000704721FA02F3D040C2F1200291400843F7
:100140001946704710B5431A934209D2831888188C
:1001500003E010F8011D03F8011D521EF9D210BD75
:1001600040EA01039B0703D009E008C9121F08C039
:10017000042AFAD203E011F8013B00F8013B521EB9
:10018000F9D210BDD2B201E000F8012B491EFBD21A
:1001900070470022F6E710B513460A460446194692
:1001A000FFF7F0FF204610BD30B50446002003469F
:1001B00000E05B1C934203D2E05CCD5C401BF8D0B6
:1001C00030BD034611F8012B00F8012B002AF9D1AC
:1001D000184670470246C9B200E0401C0378002B65
:1001E000FBD102E003788B4203D0401E9042F9D24B
:1001F000002070472DE9F0410E460546002400E03E
:10020000641C285D00F03CF80746305D00F038F8CB
:10021000381A02D1295D0029F2D1BDE8F0812DE91B
:10022000F05F0546002092469B468846064681467A
:1002300040241BE02846414647462246FFF772FF0E
:1002400053465A46C01A914110D3114618462246C9
:1002500000F02EF82D1A67EB01084F4622460120C8
:10026000002100F025F817EB00094E41201EA4F1F3
:100270000104DFDC484631462A464346BDE8F09F8C
:10028000A0F14101192900D820307047064C074DD4
:1002900006E0E06840F0010394E807009847103456
:1002A000AC42F6D3FFF726FFB8E10008D8E100081A
:1002B000202A04DB203A00FA02F100207047914026
:1002C000C2F1200320FA03F3194390407047000065
:1002D00070B5044602F0D6FF054604F1180002F09E
:1002E00053FF40EA050211484FF40071408801288D
:1002F00015D02089237BC0F38B0003F00703401C3B
:100300009B1C9840E16363791D090123AB4058436E
:1003100063632063B0FBF1F0A063104670BDE1633E
:100320006163A0688009401CC004F2E7AC000020B3
:100330003EB502200090FF2300220D2101A803F00A
:1003400097F90120019C03F051F9FF2003F05CF9BB
:1003500014F0FF0F03D1C4F30720002800D00120C0
:100360003EBD000010B50024012003F03FF9FF203E
:1003700003F04AF9641CE4B2092CF8D903490120BE
:100380000870BDE8104003F077B80000AC00002012
:100390002DE9FF4F002583B0164601278B467A02D0
:1003A0002C469246A946FF23102101A8009503F090
:1003B0005FF90120DDF8048003F018F9FF2003F055
:1003C00023F918F0FF0F36D1504607F0BFFE0400A6
:1003D00031D0FF225146FFF7D5FE29E01D48CDF868
:1003E00000900BEB05024088012800D050464243A4
:1003F000FF23112101A803F03BF9019810F0FF0F32
:1004000019D1FE2003F0A2F9A8B903985246411968
:10041000204603F00DF95544FF2003F0F5F8FF20C6
:1004200003F0F2F8012003F0E1F8FF2003F0ECF80C
:10043000761ED3D20027012003F0D8F8FF2003F066
:10044000E3F814B1204606F0A7FE07B03846BDE831
:10045000F08F0000AC0000202DE9FF4F83B017465D
:1004600000248A464FF400724FF001081646A14658
:10047000FF23102101A8009403F0FAF80120019D48
:1004800003F0B4F8FF2003F0BFF815F0FF0F52D1CE
:10049000304607F05BFE05004DD044E02B48CDF818
:1004A00000900AEB04024088012800D03046424305
:1004B000FF23182101A803F0DBF8019810F0FF0FCB
:1004C00035D1FF2003F0A0F8FF2003F09DF8FE20B7
:1004D00003F09AF8039832462044294603F0A8F81E
:1004E0003444FF2003F090F8FF2003F08DF8FF2044
:1004F00003F08AF88346FF2003F086F80BF01F0014
:10050000052814D1012003F071F8002003F06EF8E3
:10051000FF2003F079F8FF28FAD1012003F066F8F4
:10052000FF2003F071F87F1EB8D24FF0000815B11C
:10053000284606F031FE012003F058F8FF2003F0B2
:1005400063F807B04046BDE8F08F0000AC00002023
:100550002DE9F04F93B002F013FAF94D00244FF05B
:10056000080B6870F748AA7800F5C061119110393E
:100570001091203100F5C4600126CDE90E01B2B121
:10058000DFF8C493012A7DD0F04F022A7BD0032AE2
:100590007AD0DFF8BC83042A77D0052A76D1ED4FD4
:1005A000B6023878012872D0022871D0FEE300F03C
:1005B0006FFDA86800287BD000960C23E6A20D21D1
:1005C00000200BF0F9FDA868012873D000960C23D9
:1005D000E5A2192100200BF0EFFD00210C23E7A27A
:1005E000084600960BF0E8FD002380220B211846F8
:1005F0000BF03DFE4FF0100847460823CDF8008071
:1006000030210020109A0BF003FE0C23DEA23221D1
:100610000A2000960BF0D0FD0823009730211C2003
:10062000119A0BF0F5FD0C23D8A23221262000965A
:100630000BF0C2FDCDF800B05F46102334213F20FF
:100640000F9A0BF0E5FD0C23D2A232214D2000962B
:100650000BF0B2FD10230097342166200E9A0BF0A8
:10066000D7FD0C23CDA23421742000960BF0A4FDFD
:1006700000238022302118460BF0F9FD0BF0C2FE5A
:10068000687807E06AE0ECE149E3C5E319E0C4E318
:10069000C4E30DE0002814D001280DD0022813D0A7
:1006A00004280ED1A868A8B1012852D054E001E076
:1006B000009482E700948AE7A868401EA86000D5ED
:1006C000AE6013B0BDE8F08FA868401CA860012898
:1006D00042DCF6E700F0DCFC0C23B1A21821142068
:1006E00000960BF069FD002380220B2118460BF0C9
:1006F000BEFD00971023342112200F9A0BF088FDC5
:100700000C23A4A23221202000960BF055FD0823D3
:10071000CDF8008030213F20109A0BF079FD0C239A
:10072000A4A232214A2000960BF046FD002380222D
:10073000302118460BF09BFD0BF064FE9F4E00BF6E
:100740000BF092FC04F0D2FF30780128F8D134701D
:1007500002E0A878401CA870AC60B2E700F098FCFA
:10076000DFF8E4810027A8F11408AA460325DAF887
:10077000081091FBF5F005FB101000287ED091FBCE
:10078000F5F005FB10100A1A18F80220072A12D2F9
:1007900091FBF5F205FB1212891A18F80100009678
:1007A000C0EBC00000EB400101EB09020C230D215E
:1007B0000A200BF001FDDAF8080090FBF5F105FBCB
:1007C000110101297DD090FBF5F105FB1101421AC1
:1007D00042445278072A12D290FBF5F205FB12022E
:1007E000801A404440780096C0EBC00000EB400106
:1007F00001EB09020C2319210A200BF0DDFCDAF8C9
:10080000080090FBF5F105FB110102297ED090FB59
:10081000F5F105FB1101421A42449278072A12D2DF
:1008200090FBF5F205FB1202801A40448078009696
:10083000C0EBC00000EB400101EB09020C232521B5
:100840000A200BF0B9FC7F1C072F8FDB00210C2343
:100850005BA2084600960BF0AFFC002380220B2120
:1008600018460BF004FD10250823009530210020C8
:10087000109A0BF0CDFC0C2343A200E04BE0322198
:100880000A2000960BF098FC0823009530211C20CC
:10089000119A0BF0BDFC0C233CA2322126200096BD
:1008A0000BF08AFCCDF800B05D46102334213F20C8
:1008B0000F9A0BF0ADFC0C23322136A24D2000968E
:1008C00000E032E00BF078FC102300953421662024
:1008D0000E9A0BF09DFC0C2330A23421742000965C
:1008E0000BF06AFC00238022302118460BF0BFFC7D
:1008F0000BF088FD9AF80100554600283FF4E9AE58
:10090000012874D0022879D0032800E062E07FD06B
:1009100004286BD09EE0009418F80100C0EBC000E2
:1009200000EB400000EB090240E7009418F80000DB
:10093000C0EBC00000EB400000EB09025AE756E0B4
:10094000C800002094D80008E4DE00086C1A0020DB
:10095000000C0140A80000204E46432054657374EB
:100960002044656D6F00000055706461746520451A
:100970002D70617065722044656D6F0053656C6504
:1009800063742044656D6F0055500000444F574E0E
:10099000000000004241434B000000004F4B0000AC
:1009A0004E46432072656164696E67207465737496
:1009B0000000000057616B655550000008000020E2
:1009C00053656C65637420452D70617065722053AA
:1009D000697A6500009418F80000C0EBC00000EBD5
:1009E000400101EB090229E708E011E017E0A868DF
:1009F000401EA8602ED50620A8602BE0DAF808007B
:100A0000401CCAF80800072824DBCAF8084021E087
:100A1000CAF808409AF80210491EA9701AE09AF81C
:100A200002005746401C8AF80200DAF8081018F84D
:100A300001108AF80510C1EBC10000EB40024A44E6
:100A4000F7A004F07FFA397AB971F8A0BC6004F01D
:100A500079FA3E61A96813B0FBA0BDE8F04F04F03D
:100A600071BAFF484FF0000A006901284FD1DFF842
:100A7000F093002505EBC50000EB051199F8050082
:100A800017F81130C0EBC00000EB4002F54810F839
:100A900002C0634535D107EB4108104498F80210B5
:100AA0008278914209D198F80310C378994204D111
:100AB0000AEBCA0000EB0A1010E098F8031091420C
:100AC0001FD1C078A0F130010929F1D898F804109D
:100AD000814216D10AEBCA0101EB0A1007EB400074
:100AE0000146009001A8FFF76CFB41460098FFF714
:100AF00068FB404601A9FFF764FB0AF1010000F022
:100B0000FF0A6D1CEDB2322DB4D3C9F8104000F0CD
:100B1000BFFAD34DE868A96800EB40020A442A7086
:100B200000297DD0CDF80060C0EB001000EB800004
:100B300007EB40020C230D210A200BF03DFBA868B7
:100B400001286ED00096E8680C23C0EB001000EB83
:100B5000800007EB400219210A2032320BF02CFBF7
:100B6000A868022876D00096E8680C23C0EB001035
:100B700000EB800007EB400225210A2064320BF0D5
:100B80001BFB00210C23B8A2084600960BF014FBB7
:100B9000002380220B2118460BF069FB1027082345
:100BA000009730210020109A0BF032FB0C23AFF29B
:100BB000282232210A2000960BF0FEFA0823009723
:100BC00030211C20119A0BF023FB0C23AFF244229E
:100BD0003221262000960BF0EFFACDF800B05F46E8
:100BE000102334213F200F9A0BF012FB0C23AFF29D
:100BF0005C2232214D2000960BF0DEFA1023009784
:100C0000342166200E9A0BF003FB0C23AFF2742202
:100C10003421742000960BF0CFFA0023802201E0EB
:100C200014E015E0302118460BF021FB0BF0EAFB35
:100C3000687800283FF44DAD01280DD0022821D05E
:100C4000032836D004283DD03EE103E000946BE752
:100C5000009478E7009487E7A868401EA860F3D561
:100C60000220A860E868401EE860EDD5E87803211E
:100C7000B0FBF1F2EA60B0FBF1F201FB1200401EA2
:100C8000A86021E1A868401CA860EA68EB7802EB44
:100C900042010E189E4201DBAC6008E00228D3DD61
:100CA000491EAC60994202DA521CEA600CE1EC6029
:100CB0000AE1A979A960A878401EA8706FA004F085
:100CC00041F901E1A878401CA87000F0E1F90C237B
:100CD00070A208210A2000960BF06EFA00971023EC
:100CE000342117200F9A0BF093FA0C23AFF25C32E9
:100CF0003221252000960BF05FFA10230097342153
:100D000048200E9A0BF084FA0C23AFF27032342193
:100D1000562000960BF050FA0BF074FBD4E000F074
:100D2000B7F90C235BA208210A2000960BF044FAC5
:100D3000CDF800B05F461023342117200F9A0BF036
:100D400067FA0C23AFF2B4323221252000960BF063
:100D500033FA10230097342148200E9A0BF058FAEA
:100D60000C23AFF2C8323421562000960BF024FA3F
:100D70000BF048FB6878032802D004284BD0A3E08E
:100D8000A878401EA87000F083F910270823009768
:100D900030210020109A0BF03BFA0C23AFF21842DE
:100DA00032210A2000960BF007FA00E00BE108233D
:100DB000009730211C20119A0BF02AFA0C23AFF275
:100DC00034423221262000960BF0F6F9CDF800B01F
:100DD0005F46102334213F200F9A0BF019FA0C23A1
:100DE000AFF2504232214D2000960BF0E5F910236E
:100DF0000097342166200E9A0BF00AFA0C23AFF20A
:100E000064423421742000960BF0D6F9002380222E
:100E10003021184652E054E058E0C7E0CBE0000033
:100E20002564203A2573200D0A00000062726F7756
:100E30007365725F637572736F725F6F6C64203D70
:100E40002025640D0A00000062726F777365725F7F
:100E5000637572736F723D2025640D0A00000000F7
:100E6000C8000020E4DE000853656C65637420420E
:100E70004D502050696374757265000062726F771F
:100E80007365725F637572736F72203D2025640D08
:100E90000A0000005768657468657220746F2067E7
:100EA0006F20616865616420616E64206D616B65AF
:100EB00020612063686F6963653F00000BF0D7F91C
:100EC00002E0A878401CA8706C7046E44FF40069FA
:100ED00001F0FAFD90B300224946404600F0DDFAE9
:100EE00000F0D6F80C233EA21021052000960BF04E
:100EF00063F90BF087FA287800EBC00101EB0010D2
:100F000007EB40016869814239D03FA004F01AF82C
:100F1000287800EBC00101EB001007EB400001F066
:100F2000A7FE3D480178012925D0287800EBC001B3
:100F300001EB001007EB4000686123E0FFE70122AE
:100F40004946404600F0A9FA00F0A2F80C2333A26B
:100F500010211A2000960BF02FF90C2333A21C212C
:100F6000002000960BF028F90BF04CFA01F008FD78
:100F70000028FBD0ACE70221A970047002E0C82071
:100F800000F076F9324801F009F9A878401CA87001
:100F900000F07EF80C232FA21021052000960BF004
:100FA0000BF913B0BDE8F04F0BF02CBA08F09AF82B
:100FB0003C70012203E002F003FD3C700022314648
:100FC000404600F06AFA687803287FF47EAF00227A
:100FD0003146404600F061FA0220A87075E7000033
:100FE00052656164696E6720424D50207069637478
:100FF00075726520202020646174612066726F6DB7
:101000002052414D2E2E2E0066696C655F73656C13
:10101000203D2025730D0A00AA00002053442043E0
:10102000617264204572726F72210000506C6561BC
:10103000736520707265737320616E79206B6579BA
:1010400020746F2074727920616761696E2E0000D0
:10105000480F0020506C6561736520617070726F7D
:101060006163682074686520652D70617065722009
:101070006F72207072657373206261636B20202031
:1010800020206B657920746F20657869742E0000CC
:1010900070B5002400250022294620460BF002F9F5
:1010A0006D1CEDB2402DF6D3641CE4B2802CF1D35C
:1010B00070BD00002DE9F04101460026274805F0EB
:1010C000F7FC274C2749A1F5C265E071A9611421FD
:1010D000E96100283ED124A003F034FF05F109079F
:1010E00022491E4805F0FAFDE07190BB687A80B392
:1010F000A869017801B938462E21FFF76BF8A06185
:101100000028EDD0401C0146A06116481438FFF7B6
:1011100058F817A1A069FFF76DF80028E0D1A96978
:10112000087800B9394606EBC60000EB06120F48F6
:10113000203000EB42008046FFF743F831460DA017
:1011400003F000FF41460DA003F0FCFE761CF6B252
:10115000C6E7FFE73046BDE8F08100002418002014
:10116000C80000205C2000200D0A00004C1A00205E
:10117000424D50003C25643E3A20200025730D0A64
:1011800000000000FEE7000008B54FF47A7301226A
:101190006946034800F04AFD9DF8000008BD0000C4
:1011A000F00E002001B54FF47A730122694602481F
:1011B00000F0E4FD08BD0000F00E0020704710B5FF
:1011C000012000F069F8BDE810400BF0E1BA000022
:1011D00010B5042000F060F803A003F0B3FE074947
:1011E0000120087010BD000045585449325F495233
:1011F0005148616E646C65720D0A0000AA000020FF
:10120000FEE70022AFF3008030B50E4B054601200B
:101210005C7A012C15D8587A00241C54587A03EBB8
:10122000800045605D7A03F108002A54587A421C18
:101230005A72303008703A2048702F208870CC7075
:10124000002030BD1814002070B5084D4FF48064A4
:101250002146284600F01CF908B1002200E00122D6
:1012600021462846BDE8704000F017B9000C014047
:1012700070B5044600F016F90546601C02D004481B
:101280000078044400F00EF9401BA042FAD370BD70
:10129000B000002070470000044910B50A680242FF
:1012A00002D00860FFF7F6FF10BD000014040140F3
:1012B0002DE9F84FDFF8B891002409F1040A0AF18A
:1012C000040B23460F270BF1040EC9E00125A540AE
:1012D0002A40AA427DD1674ED1F804C0ACEB060883
:1012E000B44532D014DCBCF1030F3AD009DCBCF1B8
:1012F000000F2AD0BCF1010F1CD0BCF1020F31D17C
:101300001DE0BCF1110F17D0BCF1120F2AD119E06A
:10131000B8F5881F19D006DCB8F5803F15D0B8F5B0
:10132000801F1FD111E0B8F5001F0ED0B8F5041FC3
:1013300018D10AE0CB6815E0CB681B1D12E0CB6822
:1013400008330FE0CB680C330CE08B682BB1012B1A
:101350004FF0080303D0456104E0042302E0056177
:1013600000E00023FF2A01D8064601E000F1040650
:101370004FEA840501D9A5F12005D6F8008007FAC7
:1013800005FC28EA0C0803FA05F548EA0508C6F842
:1013900000804D68ED0062D5374DAE6946F001061C
:1013A000AE61AD6924F0030605F001050095334DEB
:1013B00006EB050CDCF80850A607360F07FA06F80E
:1013C00025EA0805DFF8B880404503D14FF0000852
:1013D00017E044E0DFF8AC80404502D14FF001084F
:1013E0000FE0DFF8A480404502D14FF0020808E08A
:1013F000DFF89880404502D14FF0030801E04FF03C
:10140000040808FA06F848EA0508CCF808804D6890
:10141000D9F80060ED034D4601D5164300E0964330
:101420002E604D68DAF80060AD03554601D51643CD
:1014300000E096432E604D68DBF80060ED025D46EB
:1014400001D5164300E096432E604D68DEF800603B
:10145000AD02754601D5164300E096432E60641C2C
:101460000D682A46E5407FF431AFBDE8F88F0000F3
:101470000004014000001110001002400000014073
:1014800000080140000C0140001001400014014020
:101490008068084000D0012070470AB101617047A0
:1014A0000904FBE70148806870470000B000002095
:1014B000024881680278114481607047B0000020C2
:1014C000074810B5016841F010010160032000F0E9
:1014D00085F8002000F006F800F024F8002010BD88
:1014E0000020024070B50D4D04464FF47A71287803
:1014F000B1FBF0F00A490968B1FBF0F000F0DDFD46
:1015000048B9102C07D200222146501E00F046F8A0
:1015100000206C6070BD012070BD0000B000002094
:10152000BC0000200C4808B5816941F001018161CF
:10153000816901F001010091C16941F08051C161EF
:10154000C06900F0805000900448416821F0E061DB
:1015500041F00071416008BD0010024000000140F0
:1015600000280DDB00F01F0201219140400980009E
:1015700000F1E020C0F88011BFF34F8FBFF36F8FF1
:101580007047002809DB00F01F020121914040094B
:10159000800000F1E020C0F800117047F0B40E4B5D
:1015A0001B680C46C3F30223C3F10705042D00D9C1
:1015B0000425191D072901D2002300E0DB1E0126A6
:1015C00006FA05F1491E214099409E40761E1640BC
:1015D0003143F0BC03F0C6BC0CED00E0064900F05E
:1015E000070208684FF6FF03184040EA0220034A4A
:1015F00010430860704700000CED00E00000FA05A1
:101600002DE9F0470F46050061D0434E306800F0E9
:101610000700B84209D2306820F007003843306034
:10162000306800F00700B84251D128683B4C810770
:1016300012D5400703D5606840F4E0606060287808
:10164000000703D5606840F4605060606068A96876
:1016500020F0F000084360602878C00728D0686850
:10166000012810D02168022810D0890700292EDA1D
:10167000616821F0030101436160FFF713FF8046B9
:1016800041F288390DE021688903EFE78901EDE730
:10169000FFF708FFA0EB0801494502D90320BDE888
:1016A000F0876068696800F00C00B0EB810FEFD143
:1016B000306800F00700B8420BD9306820F007000E
:1016C00038433060306800F00700B84201D0012094
:1016D000E5E72878400705D56068E96820F4E06010
:1016E000084360602878000706D56068296920F4FF
:1016F000605040EAC100606000F038F86168084A54
:10170000C1F30311515CC8400649086006480068EF
:10171000FFF7E8FE0020C2E7002002400010024070
:101720008DCE0008BC000020B4000020044805490C
:1017300000684968044AC1F30221515CC8407047FF
:10174000BC000020001002409DCE0008044805495E
:1017500000684968044AC1F3C221515CC84070471F
:10176000BC000020001002409DCE000812A185B0F0
:101770000FC98DE80F0014A0144A00680490516846
:10178000134801F00C03042B10D0082B0ED1C1F329
:101790008343C9031DF803000AD5516804AAC1F3A5
:1017A0004041515C0A4A5043B0FBF1F005B070472C
:1017B00008494843FAE70000020304050607080940
:1017C0000A0B0C0D0E0F1010010200000010024059
:1017D00000127A0000093D002DE9F84F040070D096
:1017E0002078C04DC00749D06868C0F38100012847
:1017F00007D06868C0F38100022809D16868C00377
:1018000006D52868800339D560680028E7D035E020
:101810006068B0F5803F0BD010B1B0F5A02F11D0AB
:10182000286820F480302860286820F4802002E0B6
:10183000286840F480302860606890B1FFF732FE7D
:1018400006460AE0286840F480202860F0E700BFE0
:10185000FFF728FE801B642873D828688003F7D51B
:101860000CE0FFF71FFE064605E000BFFFF71AFE7B
:10187000801B6428F0D828688003F7D420789A4E1B
:1018800080074FF001094FF0000839D5686810F063
:101890000C0F07D06868C0F38100022809D168687E
:1018A000C00306D42868800714D52069012808D110
:1018B00010E02069B0B1C6F80090FFF7F3FD0746CD
:1018C00005E00AE1FFF7EEFDC01B0228C4D8286836
:1018D0008007F7D52868616920F0F80040EAC10068
:1018E00028600DE0C6F80080FFF7DCFD074604E045
:1018F000FFF7D8FDC01B022823D828688007F7D43B
:10190000207800072CD57948A169D9B1C0F800909A
:10191000FFF7C8FD074604E0FFF7C4FDC01B02281F
:101920000FD8686A8007F7D571484FF4FA510068FC
:10193000B0FBF1F0009000BF0098411E0091FAD278
:101940000EE080E0C0F80080FFF7ACFD074604E041
:10195000FFF7A8FDC01B022875D8686A8007F7D476
:101960002078400760D5E8690027C00008D4E869FE
:1019700040F08050E861E869012700F08050009055
:101980005C480168C90513D40168834641F480713D
:101990000160FFF787FD824606E000BFFFF782FD8A
:1019A000A0EB0A0064284ED8DBF80000C005F5D58E
:1019B000E06801280AD008B1052813D0286A20F071
:1019C00001002862286A20F0040002E0286A40F042
:1019D00001002862E06841F2883B98B1FFF762FDA0
:1019E00082460BE0286A40F004002862EEE700BF60
:1019F000FFF758FDA0EB0A0159455AD8286A80071D
:101A0000F6D50CE0FFF74EFD824605E0FFF74AFDF4
:101A1000A0EB0A0159454CD8286A8007F6D41FB1BB
:101A2000E86920F08050E861E06988B36968C1F333
:101A30008101022944D00228C6F8608004D0FFF753
:101A400031FD044638E034E0FFF72CFD074604E0A2
:101A5000FFF728FDC01B02282BD828688001F7D487
:101A6000206AB0F5803F05D16868A16820F4003095
:101A700008436860D4E908010843696821F47411D7
:101A800008436860C6F86090FFF70CFD044606E066
:101A900025E000BFFFF706FD001B022809D82868D3
:101AA0008001F7D51BE000BFFFF7FCFC001B0228FC
:101AB00002D90320BDE8F88F28688001F4D40EE035
:101AC0000128F7D06868226A00F48031914204D17D
:101AD000616A00F47010884201D00120EAE700201A
:101AE000E8E7000000100240000042428004424249
:101AF000BC0000200070004070B5040005D0002537
:101B0000A56294F8510010B106E0012070BD84F880
:101B10005050204600F02EF8022084F85100206832
:101B2000016821F040010160D4E901010843D4E9D2
:101B300003121143084361690843218B01F40071CA
:101B40000843E1690843216A0843A16A0843216800
:101B50000860A069042101EA1040216848602068FB
:101B6000C16921F40061C1616565012084F85100FB
:101B7000002070BD30B585B000240094019402941B
:101B80000394254D0368254802210322AB421AD154
:101B9000836943F480538361836903F4805304931E
:101BA000836943F00403836180691D4D00F00400E4
:101BB0000490A020CDE90001039269462846FFF772
:101BC00077FB40201EE0174DAB4222D1C36943F49E
:101BD0008043C361C36903F480430493836943F082
:101BE000080383618069104D00F0080004904FF4F1
:101BF0002040CDE90001039269462846FFF758FBD3
:101C00004FF48040CDE90004694628460294FFF76E
:101C10004FFB05B030BD0000003001400010024015
:101C20000008014000380040000C01402DE9F84F49
:101C3000044640680025984616460F464FF0040BB0
:101C4000B0F5827F01D1A06888B194F850000128D6
:101C500018D0012084F85000FFF724FC814694F846
:101C600051004FF0000A01280ED002257DE084F8D3
:101C700051B013460A462046CDF8008000F02CF9FA
:101C8000BDE8F88F0220FBE7002F6DD0002E6BD04F
:101C900084F851B0C4F854A0A763A687E687C4F8B7
:101CA00030A0A4F834A0A4F836A0C4F840A0C4F82A
:101CB00044A0A068B0F5004F04D12068016821F469
:101CC0008041016020680168490603D4016841F041
:101CD00040010160E068D8B139E020688168C90737
:101CE00009D0007BA16B0870A06B401CA063E08F43
:101CF000401EE0870CE0FFF7D5FBA0EB0901414552
:101D000003D3B8F1FF3F03D036E0B8F1000F33D072
:101D1000E08F0028E1D11DE020688168C90709D063
:101D2000C068A16B0880A06B801CA063E08F401E80
:101D3000E0870CE0FFF7B6FBA0EB0901414503D3B8
:101D4000B8F1FF3F03D017E0B8F1000F14D0E08FD7
:101D50000028E1D14A464146204601F051FD08B134
:101D600020206065606D00B10125012084F85100DC
:101D700084F850A0284683E70325F6E72DE9F84FBD
:101D8000044690F8500000271D4616468946012853
:101D90000DD04FF0010B84F850B0FFF783FB804665
:101DA00094F85100BA46012804D002278EE00220A0
:101DB000BDE8F88FB9F1000F7DD0002E7BD0032055
:101DC00084F85100C4F854A0C4F83090A686E68682
:101DD000C4F838A0A4F83CA0A4F83EA0C4F844A0DD
:101DE000C4F840A0A068B0F5004F04D12068016895
:101DF00041F48041016020680168490603D401680C
:101E000041F040010160E068B0F5006F606803D008
:101E100030B3012E24D040E008B1012E1CD1206B3C
:101E200021680088C86006E020688168890709D5B4
:101E3000216B0988C160206B801C2063E08E401EEE
:101E4000E08609E0FFF72EFBA0EB0800A84202D3D2
:101E5000681C01D031E07DB3E08E0028E4D11FE0A2
:101E6000206B21680078087306E020688168890784
:101E700009D5216B09780173206B401C2063E08E2B
:101E8000401EE08609E0FFF70DFBA0EB0800A8422A
:101E900002D3681C01D010E075B1E08E0028E4D1B7
:101EA00042462946204601F0D9FC08B12020606551
:101EB000A06820B107E008E0FFE7032706E02068FC
:101EC000C16880680090606D00B1012784F851B04E
:101ED00084F850A038466BE72DE9F84F044690F897
:101EE000500000270A9E1D4692468B464FF001097E
:101EF00001280ED0012084F85000FFF7D3FA804665
:101F000094F85100616801280CD0B1F5827F07D1A7
:101F100002E00220BDE8F88FA16809B9042801D0C9
:101F20000227C2E0BBF1000F27D0BAF1000F24D086
:101F30001DB394F85100042802D0052084F8510004
:101F400000206065C4F838A0E587A587C4F830B0E4
:101F5000E586A5862064606420680168490603D48C
:101F6000016841F040010160E068B0F5006F606811
:101F700005D0E8B3012D46D07FE0012795E008B1F8
:101F8000012D39D1206B21680088C860206B801C2E
:101F90002063E08E401EE0862EE02068816889077D
:101FA0000FD5E18E69B1B9F1010F0AD1216B098812
:101FB000C160206B801C2063E08E401EE0864FF0E5
:101FC000000920688168C9070CD0E18F51B1C06851
:101FD000A16B0880A06B801CA063E08F401EE0878F
:101FE0004FF00109FFF75EFAA0EB0800B04200E0F5
:101FF00009E001D3701C50D1E08E0028CDD1E08FD4
:102000000028CAD13FE0206B216800780873206B5C
:10201000401C2063E08E401EE0862EE02068816830
:1020200089070FD5E18E69B1B9F1010F0AD1216B92
:1020300009780173206B401C2063E08E401EE0860F
:102040004FF0000920688168C9070CD0E18F51B1B9
:10205000C068A16B0870A06B401CA063E08F401E9D
:10206000E0874FF00109FFF71DFAA0EB0800B0422E
:1020700002D3701C01D010E07EB1E08E0028CDD1DB
:10208000E08F0028CAD142463146204601F0E6FBE7
:1020900028B101272020606507E0032705E0A0683C
:1020A00018B92068C16880680090012084F8510048
:1020B000002084F8500038462CE710B5401EB0F1DF
:1020C000807F01D3012010BD4FF0E02460610F211B
:1020D000601702F047FF0020A06107202061002068
:1020E00010BD7047704770B590F83C20012A19D098
:1020F000012400F83C4F0222427050F83C3C5A68E0
:102100009D6822F070060A684968324325F0800510
:1021100029435A6050F83C2C9160447000210170B2
:10212000084670BD022070BD10B5040003D094F8BD
:102130003D0010B107E0012010BD002084F83C00F4
:10214000204600F00DF8022084F83D00211D206893
:1021500002F078FD012084F83D00002010BD000051
:1021600008B500680B49884212D10B48C16941F09B
:102170000201C161C069002200F002000090114616
:102180001D20FFF70BFABDE808401D20FFF7F9B945
:1021900008BD000000040040001002400168CA6849
:1021A00042F00102CA600068816801F00701062957
:1021B00003D0016841F0010101600020704770B553
:1021C000044690F83C00012817D0012584F83C50C3
:1021D000022084F83D002068826822F0770222F411
:1021E0007F4282600868502830D00DDC20284DD016
:1021F00005DC98B310283BD148E0022070BD3028A0
:1022000044D0402834D139E0602828D0702806D046
:10221000B0F5805F2CD0B0F5005F29D10AE0CB6823
:10222000D1E90121206802F043FD2068816841F076
:10223000770109E0CB68D1E90121206802F038FD7F
:102240002068816841F48041816011E0CA68496872
:10225000206802F03FFD5021206807E016E0CA68C0
:102260004968206802F047FD6021206802F02AFDDD
:1022700084F83D50002084F83C0070BDCA6849686D
:10228000206802F027FD40212068EFE72268014620
:102290001046EBE7704770B50446006801694FF0DF
:1022A0000005C943890715D4C168C943890711D4FA
:1022B000E91E01610120207720688069800720469F
:1022C00002D0FFF7E7FF04E000F098F8204600F0A6
:1022D00096F8257720680169C943490717D4C16872
:1022E000C943490713D46FF004010161022020772C
:1022F0002068806910F4407F204602D0FFF7CAFFB3
:1023000004E000F07BF8204600F079F8257720689B
:102310000169C943090716D4C168C943090712D422
:102320006FF008010161042020772068C0698007F0
:10233000204602D0FFF7AEFF04E000F05FF8204631
:1023400000F05DF8257720680169C943C90617D4F4
:10235000C168C943C90613D46FF010010161082098
:1023600020772068C06910F4407F204602D0FFF734
:1023700091FF04E000F042F8204600F040F8257795
:1023800020680169C943C90708D1C168C943C907A1
:1023900004D1891E0161204600F032F820680169ED
:1023A000C943090609D4C168C943090605D46FF0B9
:1023B000800101612046FFF794FE20680169C9434E
:1023C000490609D4C168C943490605D46FF04001E4
:1023D0000161204600F02AF820680169C943890696
:1023E0000BD4C168C943890607D46FF0200101618D
:1023F0002046BDE87040FFF775BE70BD704770475E
:1024000000680849884208D10748417831B101295C
:1024100003D1022101700021417070470121017038
:10242000FAE7000000040040A8000020704770B5E3
:10243000040004D094F83900002510B106E0012012
:1024400070BD84F83850204600F022F8242084F82B
:1024500039002068C16821F40051C160204602F0B3
:102460005DFC2068016921F49041016120684169A7
:1024700021F02A0141612068C16841F40051C16026
:10248000E563202084F8390084F83A00002070BD0C
:1024900030B585B000240094019402940394006840
:1024A0001449884223D11448C16941F40031C16103
:1024B000C16901F400310491816941F00401816135
:1024C00080690E4D00F0040004900420009002206A
:1024D00001900320039069462846FEF7E9FE082094
:1024E000CDE90004694628460294FEF7E1FE05B0F6
:1024F00030BD0000004400400010024000080140D0
:102500002DE9F843044690F839001F4616460D465B
:10251000202850D1A5B19EB194F8380001284AD0A6
:10252000012084F838004FF00008C4F83C802120D6
:1025300084F83900FEF7B6FFA6848146E68426E0DB
:102540000120BDE8F883E08C401EE084A0684B4683
:10255000B0F5805F4FF000024FF0800120460097F9
:1025600003D002F037FCE8B90DE002F033FCC8B943
:1025700028882168C0F308004860206908B16D1CF4
:1025800005E0AD1C03E0216815F8010B4860E08C04
:102590000028D8D14B46002240212046009702F067
:1025A00019FC08B10320CCE7202084F8390084F816
:1025B00038800020C5E70220C3E700000122D102D5
:1025C0000348FEF76AFF03A002F0BCFCFEE7000030
:1025D000000C0140486172644661756C745F48612B
:1025E0006E646C65720D0A0010B504490448FEF76C
:1025F00008FE0249491E087010BD00009D00002021
:10260000880000202DE9F04F85B000255448009542
:10261000019502950395816941F0200181618169ED
:1026200001F020010491816941F01001816181690B
:1026300001F010010491816941F004018161816917
:1026400001F004010491816941F008018161806910
:10265000DFF8109100F00800049000221021484695
:10266000FEF71BFFDFF800A14FF440670022394658
:102670005046FEF712FF4FF4805801224146504663
:10268000FEF70BFFDFF8E4B00122C0215846FEF749
:1026900004FF0022B9105846FEF7FFFE0B20CDE9DB
:1026A00000050124694602945846FEF701FE042005
:1026B00000902F48CDE9010469465846FEF7F8FD21
:1026C0002C486946CDE9004002954846FEF7F0FDEA
:1026D0001020CDE900040326CDE9024669464846AC
:1026E000FEF7E6FDCDE900740227029769465046E1
:1026F0000397FEF7DDFDCDE90084CDE9024669468A
:102700005046FEF7D5FDC020CDE90004CDE90246D4
:1027100069465846FEF7CCFD2002CDE90004CDE91C
:10272000024769465846FEF7C3FD60028DE8710016
:1027300069465846FEF7BCFD002211460620FEF70A
:102740002DFF0620FEF71DFF002201210820FEF7C5
:1027500025FF0820FEF715FF05B0BDE8F08F00004B
:102760000010024000080140000C01400010014030
:102770000000211000001110104810B50E49016032
:102780004FF482714160002181600122C160C0E983
:102790000412520282611822C0E90721416281625B
:1027A0000A21C162FFF7A8F9002803D0BDE8104054
:1027B000FEF726BD10BD000000300140980E00203D
:1027C000104810B50E4901604FF48271416000213C
:1027D0008160C1604FF400720161C0E905122822D6
:1027E000C0E90721416281620A21C162FFF784F9D1
:1027F000002803D0BDE81040FEF702BD10BD000068
:1028000000380040F00E002010B586B000241848B3
:102810000094019402940394049414490594016073
:1028200041F61F41C0E9011440F69F71C0E903144D
:1028300080218161FFF778FC08B1FEF7E1FC4FF4DD
:102840008050009069460A48FFF7B9FC08B1FEF7CE
:10285000D7FC049404A906480594FFF744FC00281B
:1028600001D0FEF7CDFC06B010BD00000004004012
:10287000480F00200C4810B50A4901604FF4E131BF
:102880004160002181600C22C160C0E904128161B5
:10289000C161FFF7CCFD002803D0BDE81040FEF772
:1028A000AFBC10BD00440040880F0020FEE7704719
:1028B0007047000010B5ADF51C7D044600F004F92A
:1028C0000A20FEF7D5FC01222146684604F01CF8D8
:1028D000214638B110A002F035FB4FF0FF300DF566
:1028E0001C7D10BD14A002F02DFB9BAB3E228BA9DA
:1028F000684604F02DF9DDF85A1216A002F022FB0A
:10290000BDF8481218A002F01DFB684603F076FEE1
:10291000BDF84802E3E700004465627567203A208D
:102920004E6F2066696C6520666F756E643A20256F
:102930007320200D0A0000004465627567203A206C
:102940006F70656E20626D702066696C653A202537
:10295000730D0A00636F6C6F727375736564203D4D
:102960002025640D0A00000070626D706865616466
:1029700065722D3E627070203D2025640D0A0000B6
:1029800070B52D4C01212046FEF782FD38B90A2092
:10299000FEF76EFC01212046FEF77AFD28B10221E8
:1029A0002046FEF775FD40B10FE001212046FEF7FD
:1029B0006FFD0028F9D0012070BD0A20FEF758FCF9
:1029C00002212046FEF764FD28B104212046FEF7CF
:1029D0005FFD40B10FE0022502212046FEF758FDC1
:1029E0000028F9D026E00A20FEF742FC0421204608
:1029F000FEF74EFD28B108212046FEF749FD40B103
:102A00000FE0032504212046FEF742FD0028F9D0FF
:102A100010E00A20FEF72CFC08212046FEF738FDC6
:102A200008B1002070BD042508212046FEF730FDC6
:102A30000028F9D0284670BD001001402DE9F04172
:102A40000F4680460024094D094E07E008FB004070
:102A500000F090FE3919641CC870E4B2707955F822
:102A60002000A042F2DCBDE8F0810000B8DF0008E1
:102A7000C80000202DE9F0478846814600244EF624
:102A800060270F4E0F4D0CE0062811D0E21909FB0C
:102A9000012000F06FFE00BF08EB0401641CC87049
:102AA000E4B2707955F82010A142EDDCBDE8F08762
:102AB000A969E21909FB012000F05CFEC043EBE7C5
:102AC000C8000020B8DF000810B51A491A48FEF700
:102AD00098FB08B119A003E0FDF744FC18B12048A9
:102AE00002F030FA0CE01FA002F02CFA012229A11A
:102AF000294803F0DBFE010004D028A002F022FAEE
:102B0000002010BD35A002F01DFA22A13F4803F0BD
:102B1000CFFF040008D00D2C04D03DA002F012FA23
:102B20002146EAE743A0F9E74BA002F00BFA0120A7
:102B300010BD00009D0000208800002044656275E3
:102B400067203A2046415446535F4C696E6B44728D
:102B500069766572206572726F720D0A000000005E
:102B600070E100084465627567203A205344206391
:102B700061726420696E697469616C697A617469F3
:102B80006F6E207375636365737366756C2E2E0D9F
:102B90000A0000002F000000680C002044656275E8
:102BA00067203A2053442063617264206D6F756E14
:102BB000742066696C652073797374656D20666135
:102BC000696C6564202C6572726F7220636F646536
:102BD000203A282564290D0A00000000446562752A
:102BE00067203A2053442063617264206D6F756ED4
:102BF000742066696C652073797374656D207375D4
:102C000063636573732121200D0A0000DA0F002031
:102C10004465627567203A204661696C20746F20B4
:102C20006F70656E206469726563746F72790D0AE6
:102C3000000000004465627567203A205344206319
:102C4000617264206E6F742046415420666F726D0D
:102C5000617465640D0A00004465627567203A205E
:102C600066696C65206F70656E200D0A00000000BB
:102C700010B50D490446002008702046FFF71AFEE3
:102C8000411C0FD0012806D018280BD12046BDE8E2
:102C9000104000F03FB920460022BDE81040114628
:102CA00000F004B810BD0000AA0000202DE9F04F8C
:102CB000ADF51D7D8B461446054601468BAF0122BE
:102CC000684603F021FE50B15AA002F03BF92946B4
:102CD00060A002F037F90DF51D7DBDE8F08F2946A3
:102CE00063A002F02FF99CAB3E228BA9684603F04B
:102CF0002FFFDDF85A1265A002F024F9BDF8480252
:102D000001287CD19DF82C024D2803D19DF82D027D
:102D1000422826D0DDF82E1261A002F013F9DDF86A
:102D2000361266A002F00EF99DF86292DDF83612B6
:102D3000684603F079FC9DF83E024007DDF83E024C
:102D40004FEAD00000D0401C86B2B0070BD0B008CC
:102D50008000001D1FFA80F80020DFF880A19B9002
:102D600056E05FA063E03046F4E700BF4FEADB05C2
:102D700042E09CAB01229BA9684603F0E9FEB54204
:102D800038D2BAF80A10B9F1000F18D0012908D1C9
:102D9000D7F81600BAF80210001B401E00FB061000
:102DA00017E0D7F81600BAF80210001B401E00FB0F
:102DB00006109DF86C122844C943C9B20CE00129E1
:102DC000EFD0D7F81610BAF80200091B491E01FB14
:102DD000060028449DF86C1200F0EEFCD7F81600AF
:102DE0004EF66021001B2944401E00FB0610FF2107
:102DF00000F0E2FC6D1CADB24545BAD300E00BE03B
:102E0000FEF722FA3E480078012809D0641CA4B2DB
:102E1000D7F81600A042A9D8684603F0EFFB5AE79E
:102E200000224FF480613748FEF737FB36A002F0EE
:102E300089F8F1E74465627567203A20534443619D
:102E400072645F52656164424D505F4269746D61A6
:102E5000700D0A004465627567203A204E6F206647
:102E6000696C6520666F756E643A2025730D0A00E3
:102E70004465627567203A206F70656E20626D70E0
:102E80002066696C653A2025730D0A00636F6C6FCC
:102E9000727375736564203D2025640D0A0000007F
:102EA0004465627567203A2066696C652073697AAB
:102EB00065203D20202564200D0A000044656275D0
:102EC00067203A2066696C65206F666673657420BA
:102ED0003D20202564200D0A00000000C80F0020BE
:102EE0004465627567203A207468652066696C6580
:102EF000206973206E6F7420626D700D0A000000EF
:102F0000AA000020000C0140B4F2B6CFB6C1CDBC7F
:102F10000D0A00002DE9F04FADF51D7D0446014678
:102F20008BAF0122684603F0EFFC214630B164A06C
:102F300002F008F80DF51D7DBDE8F08F67A002F0E6
:102F400001F89CAB3E228BA9684603F001FEDDF838
:102F50005A1269A001F0F6FFBDF848126BA001F00B
:102F6000F1FFBDF8480218287ED19DF82C024D28AB
:102F700003D19DF82D0242281FD0DDF82E1266A045
:102F800001F0E0FFDDF836126AA001F0DBFFDDF8AA
:102F90003612684603F048FB9DF83E024007DDF814
:102FA0003E024FEAD00000D0401C1FFA80FB0020F8
:102FB0008046054606469B906EE066A07CE00024B5
:102FC0005DE09CAB01229BA9684603F0C1FD9CAB70
:102FD00001220DF51B7A6846D91E03F0B9FD9CABA2
:102FE00001220AF10201684603F0B2FD9DF86C026D
:102FF0001E280AD29DF86D121E2906D29DF86E1267
:103000001E2902D248F001080BE05A2809D29DF887
:103010006D025A2805D29DF86E02BE2801D945F0EE
:103020000105761CF6B2082E21D3D7F81610A1EBB5
:103030000900401E00FB0BF06FEA080100EBD40012
:10304000C9B200F0B9FB4EF66020D7F8161000EBBD
:10305000D402A1EB0900401E00FB0B20E943C9B2DA
:1030600000F0AAFB002600E01BE0B04635464FEA20
:1030700048604FEA10686806050E641CA4B2D7F8D1
:103080001200A0429DD83B48007801280DD0FEF7E1
:10309000DBF809F1010080B2D7F8161081464945E6
:1030A0008DD8684603F0AAFA44E700224FF4806105
:1030B0003148FEF7F2F931A001F044FFF1E70000DA
:1030C0004465627567203A204E6F2066696C652002
:1030D000666F756E643A2025730D0A00446562754B
:1030E00067203A206F70656E20626D702066696C93
:1030F000653A2025730D0A00636F6C6F72737573E8
:103100006564203D2025640D0A0000006270702077
:103110003D2025640D0A00004465627567203A2051
:1031200066696C652073697A65203D2020256420DE
:103130000D0A00004465627567203A2066696C6577
:10314000206F6666736574203D20202564200D0A7B
:10315000000000004465627567203A2074686520AD
:1031600066696C65206973206E6F7420626D700DE6
:103170000A000000AA000020000C0140B4F2B6CF03
:10318000B6C1CDBC0D0A000070B588B0002504465C
:103190000126FF232A460A2105A8009500F068FAB7
:1031A000059810F0FF0F63D1FE2000F0CFFA002841
:1031B0005ED101AEFF2000F027FA70556D1C102D76
:1031C000F8D3FF2000F020FAFF2000F01DFA9DF850
:1031D000040020709DF805000002608060889DF862
:1031E0000610084360809DF8070000066060606874
:1031F0009DF8081040EA0140606060689DF8091081
:1032000040EA0120606060689DF80A100843606031
:103210009DF80B0020729DF80C0060729DF80D0067
:103220000006E060E0689DF80E1040EA0140E060B2
:10323000E0689DF80F1040EA0120E060E0689DF82A
:1032400010100843E060217C9DF8110041EA101144
:1032500021740007000D6082608A9DF812100843F7
:1032600060829DF8130040082075012060750026DB
:10327000012000F0BBF9FF2000F0C6F908B030468D
:1032800070BD000070B588B0002504460126FF23FC
:103290002A46092105A8009500F0EAF9059810F0E2
:1032A000FF0F7DD1FE2000F051FA0028F9D101AEC8
:1032B000FF2000F0A9F970556D1CADB2102DF7D3A9
:1032C000FF2000F0A1F9FF2000F09EF99DF8041006
:1032D00020788A0962F3010061F3870020709DF86D
:1032E000050060709DF80600A0709DF80700E07072
:1032F0009DF8080001019DF8090041EA1012A1881B
:1033000062F30B01A180617960F3071161719DF88F
:103310000A00A179C20962F30001820962F3410146
:10332000420962F38201020962F3C301A1715149AA
:103330004988002972D081009DF80B0041EA901263
:10334000217A000462F3050121729DF80C1040EA15
:1033500001209DF80D100843A16860F39B11A16046
:10336000E07A20F01000E0729DF80E10207C8A09AF
:1033700062F300009DF80F20490041EAD21161F389
:1033800047002074617C9DF8100062F30601C209B9
:1033900062F3C7116174A17C420962F3010100E08C
:1033A00032E0820862F38401A1749DF8111080005C
:1033B00040EA9112E07C62F303004A0962F30410D0
:1033C000E074207D61F304009DF81210CA0962F3D5
:1033D00045108A0962F386104A0962F3C710207506
:1033E000607D0A0962F300008A0862F3420061F31B
:1033F000C40060759DF81310A07D4A0862F30600B2
:1034000061F3C710A0750026012000F0EFF8FF203F
:1034100000F0FAF808B0304670BDFFE7217A820864
:1034200062F3010121729DF80B10800240EA8100D5
:103430009DF80C1040EA9112208962F38D002081E2
:10344000A07ACA0862F3020061F3C500A0729DF879
:103450000D10E07A4A0962F302008A0862F3C5009F
:10346000E07288079DF80E10400F40EAD1102073DB
:103470007AE70000AC0000202DE9FF4100248DF820
:103480000C4000BF9DF80C00401C8DF80C00002281
:103490009523114601A8009400F0EAF80120019D4F
:1034A00000F0A4F8FF2000F0AFF89DF80C006428AD
:1034B0007ED2E8B20128E5D10520009087234FF4A1
:1034C000D572082101A800F0D3F80120019D00F079
:1034D0008DF8FF2000F098F8E8B2434E41071FD561
:1034E000FF230022372101A8009400F0C1F8012039
:1034F00000F07CF8FF2000F087F8FF23002229214C
:1035000001A8009400F0B4F80120019D00F06EF8CD
:10351000FF2000F079F8E8B20128E1D0748060E083
:10352000012856D18707FF230022372101A80094E4
:1035300000F09EF8012000F059F8FF2000F064F838
:10354000FF233A46292101A8009400F091F80120B8
:10355000019D00F04BF8FF2000F056F8E8B201287A
:10356000E1D0680721D5FF230022372101A800946C
:1035700000F07EF80120019D00F038F8FF2000F0F7
:1035800043F8E8B2012824D1FF230022292101A811
:10359000009400F06DF80120019D00F027F8FF2055
:1035A00000F032F8E8B20128DDD00320FF2300E06C
:1035B0000FE0009000223A2101A800F059F8012004
:1035C000019C00F013F8FF2000F01EF814F0FF0F2C
:1035D00003D0012004B0BDE8F081200AC0F38010C0
:1035E00070800020F6E70000AC000020054B4FF48F
:1035F0008051012803D000221846FDF74EBF01225A
:10360000FAE70000000C014001B582B04FF47A7077
:103610000090012301AA02A90448FEF75DFC08B14D
:10362000FFF7CEF89DF804000EBD0000F00E00205C
:1036300008B54FF47A73009313460A4601460548CD
:10364000FEF74AFC002803D0BDE80840FFF7B8B8F1
:1036500008BD0000F00E002010B50824FF20FFF781
:10366000D3FF641EE4B2FF2801D1002CF6D110BDB7
:103670002DE9FF4106463448D0E9004541F04000BD
:103680000A9F8DF80000100E8DF80100100C8DF8C7
:103690000200100A8DF803008DF8042043F00100A9
:1036A0008DF805000020FFF7A1FF062202A9684659
:1036B000FFF7BEFF062F43D2DFE807F00308202AFA
:1036C000422AFFF7C9FF60F3070439E0FFF7C4FFA0
:1036D00060F30704FF20FFF797FF60F30F2401203A
:1036E000FFF784FF0120FDF7C3FD0020FFF77EFFF9
:1036F000FF20FFF789FFFF28FAD121E0FFF7ACFF99
:1037000060F30704FF20FFF77FFF60F30F2417E04B
:10371000FFF7A2FF60F30704FF20FFF775FF60F3D8
:103720000F24FF20FFF770FF60F31744FF20FFF71F
:103730006BFF60F31F64FF20FFF766FF60F3070570
:1037400034603571BDE8FF8188CE000870B505464C
:103750004FF6FF74FF20FFF757FF641EA4B2A84284
:1037600002D0002CF6D102E00CB1002070BD022086
:1037700070BD000070B50F4D044600224021284660
:10378000FDF78BFE0320FDF70DFDC4F30740FDF7A9
:1037900009FDC4F30720FDF705FDE0B2FDF702FDCA
:1037A000FDF7F2FC0446012240212846FDF775FE94
:1037B000204670BD0010014070B5104D0E46044605
:1037C000002240212846FDF768FE0220FDF7EAFCB2
:1037D000C4F30740FDF7E6FCC4F30720FDF7E2FC65
:1037E000E0B2FDF7DFFC3046FDF7DCFC2846BDE823
:1037F000704001224021FDF750BE00000010014042
:10380000F8B5044640684FF48273984217D1A06817
:103810004FF48065B0F5004F01D0A8420FD1206869
:10382000066826F0400606606068984207D1A068E6
:10383000A84204D100920B460022012103E000922D
:103840000B4600228021204600F018F8002804D002
:10385000606D40F0200060650320F8BD38B50B4670
:10386000009204460022802100F008F8002804D0CD
:10387000606D40F020006065032038BD2DE9F04107
:103880001D4617460E460446DDF8188008E0681C01
:1038900006D0FDF707FEA0EB0800A8420BD255B1F9
:1038A0002068806836EA000030D00020B842EED1AF
:1038B0000020BDE8F0812068416821F0E00141600E
:1038C0006068B0F5827F0BD1A068B0F5004F02D0E0
:1038D000B0F5806F04D12068016821F040010160DB
:1038E000A06AB0F5005F09D12068016821F4005199
:1038F00001602068016841F400510160012084F8F2
:103900005100002084F850000320D2E70120CDE7C9
:10391000704700001CB513A10124096801910A2118
:1039200090FBF1F292FBF1F301FB132230328DF8A0
:10393000042090FBF1F201FB120030308DF80500FD
:103940000C2309A210212820009408F035FC0C2338
:1039500001AA20213A20009408F02EFC08F052FD24
:103960001CBD00000000250050726F677265737304
:103970003A0000000149086070470000A4000020E0
:1039800070B50E4D0C46ADF5027D2968164651B155
:1039900018B1014601A8FCF7D5FB4FF47A700090EE
:1039A0002CB1224604E026200DF5027D70BD41AA0F
:1039B000334601A92868FEF78FFAF5E7A400002036
:1039C0002DE9F04FF9A0E5B000685A90F8A0002565
:1039D00000685790F7A0772100685B90F6A0006818
:1039E0005C90F6A000685D90F5A000685E90F5A080
:1039F00000685F90F4A00068609009A8FCF7C9FB1C
:103A0000F24C782160680890F1A000685990F1A00C
:103A100000686190F0A000686290F0A00068639078
:103A200028A8FCF7B6FBA068279006F085FC05F0F7
:103A300067FBDFF8ACA3002464A98AF800402046A5
:103A400006F08EFD002879D158AB50AA012106F06E
:103A5000C6FB0028F7D19DF8600100286ED0FDF765
:103A600017FB9DF84011012650A8012936D09DF87A
:103A70004411401D03F0DCFC0146DAA001F062FABB
:103A80000C23E2A218210F20CDF8006008F094FB6F
:103A900008F0B8FC4FF47A70FDF7EAFBDFF880938A
:103AA000E0A099F8051001F04DFA0DF58C7841F27F
:103AB0006D07E1A001F046FACDF80080CDE901479D
:103AC000142303AA02215AA807F083FE4FF4806151
:103AD000DB48FDF7DDFC78B100220EE00421113057
:103AE00003F0A6FC0146D7A001F02CFA0C23182104
:103AF000E1A20A200096C9E701224FF48061D04874
:103B0000FDF7CBFC9DF80C0010B99DF80D00B0B18D
:103B100099F80400401CC0B289F804000A2835D97D
:103B2000DAA001F00FFA03F063F90122D102C448D0
:103B3000FDF7B3FC0E2589F8044015E1D7E38DF8B5
:103B40000C608DF80D600125E0A00CE2012D1ED067
:103B5000022D72D0032D71D0042D70D0052D6FD0A1
:103B6000062D6ED0072D6DD0082D6CD0092D6BD091
:103B70000A2D6AD00B2D69D00C2D68D00D2D67D081
:103B80000E2D7DD00F2D7CD0132D7BD02CE2FDF798
:103B90007FFA99F8050070B101280ED0022816D0DE
:103BA000032819D0042819D005281CD0072839D09B
:103BB00006283CD01FE0042000E007208DF85E01BD
:103BC0005FF010008DF822008DF89E4013E00A206F
:103BD0008DF85E016420F5E70E2024E010208DF8BA
:103BE0005E01792003E005208DF85E016A208DF8E2
:103BF00022008DF89E00142303AA0321CDF8008033
:103C0000CDE9014757A807F0E4FD0C23B1A2182124
:103C10001420009608F0D0FA08F0F4FB9DF80C0090
:103C2000B8B119E011208DF85E017820CAE714239D
:103C300003AA0221CDF80080E2E734E06CE0A5E0C1
:103C400092E1B9E1DCE10DE2BEE3F7E3F7E3F7E38C
:103C5000F7E39DF80D00E8B199F80410491CC9B2CA
:103C600089F804100A291CD988A001F06BF903F027
:103C7000BFF80E2589F80440C820FDF7F9FA02E0E4
:103C8000F8E3F8E3F8E30122D1026D48FDF705FC03
:103C90000A206AE08DF80C608DF80D60022591A075
:103CA00082E10A206FE0CDF80080CDE901471423BE
:103CB00003AA02215BA807F08CFD9DF80C0010B947
:103CC0009DF80D00C8B199F80400401CC0B289F8F5
:103CD000040032281ED96DA001F034F903F088F8F1
:103CE0000E2589F80440C820FDF7C2FA0122D1024E
:103CF0005348FDF7D2FB642037E08DF80C608DF857
:103D00000D60032579A001F01DF989F804406420B5
:103D1000FDF7AEFA642036E0CDF80080CDE901472A
:103D2000142303AA02215CA807F053FD9DF80C00A0
:103D300010B99DF80D00D8B199F80400401CC0B22C
:103D400089F804000A281DD950A001F0FBF803F0FF
:103D50004FF80E2589F80440C820FDF789FA0122A2
:103D6000D1023748FDF799FBC820FDF781FAFDE342
:103D70008DF80C608DF80D6004255EA001F0E2F86E
:103D800089F80440C820FDF773FAFFE6CDF80080FB
:103D9000CDE90147142303AA02215DA807F019FD0C
:103DA00099F80500062800D1A8E0B7E0CD0D000085
:103DB000CD000A00CD010000CD020000CD030000BF
:103DC000CD050000CD060000CD070000C4DE0008D0
:103DD000CD180000CD090000CD0A0000CD04000080
:103DE000AA00002049534F3134343433412F4E461A
:103DF000432D41206361726420666F756E642E20CE
:103E00005549443A2025730D0A000000452D706184
:103E10007065722064657465637465642E000000CB
:103E2000C800002073697A655F666C6167203D2079
:103E300025640D0A00000000537465703000000016
:103E4000000C014049534F3134343433412F546F07
:103E500070617A20284E46432D4120543154292048
:103E600054414720666F756E642E205549443A20B0
:103E700025730D0A00000000452D706170657220E9
:103E80006465746563746564000000005570646166
:103E90007465206661696C65642C20706C65617363
:103EA0006520707265737320616E79206B6579206F
:103EB000746F206578697420616E64207472792053
:103EC000616761696E2E0D0A000000005374657011
:103ED000310D0A00452D706170657220636F6E664A
:103EE0006967000053746570320D0A005374657081
:103EF000330D0A0053746570340D0A00FCA001F004
:103F000021F800F0C5FC20B1012804D0022804D01B
:103F100004E00B2502E00E2500E00F259DF80C00C3
:103F200010B99DF80D0090B199F80400401CC0B282
:103F300089F804000A287CD9AFF2B00001F002F839
:103F400002F056FF0E2589F80440C8200AE39AF8CB
:103F5000000000286ED189F804408DF80C608DF8BF
:103F60000D600525E8A082E2CDF80080CDE901478B
:103F7000142303AA02215EA807F02BFC9DF80C0075
:103F800010B99DF80D0048B199F80400401CC0B26A
:103F900089F804001E287FF684AE65E68DF80C6073
:103FA0008DF80D600625DAA000F0CCFF89F80440FA
:103FB0006420FDF75DF974E6CDF80080CDE9014796
:103FC000142303AA02215FA807F003FC9DF80C004C
:103FD00010B99DF80D0040B199F80410491CC9B200
:103FE00089F804100A29A7D8AEE38DF80C608DF883
:103FF0000D600725C8A000F0A5FF89F8044089E6F8
:10400000FDF746F8CDF80080CDE90147142303AA57
:10401000022160A807F0DDFB0C23C1A210210520BE
:10402000009608F0C9F808F0EDF99DF80C0028B9E1
:1040300001E087E3D0E09DF80D0040B199F804005D
:10404000401CC0B289F804000A28CCD87CE38DF863
:104050000C608DF80D600825B6A000F073FF89F89C
:10406000044071E3FDF714F899F8050060B10128E8
:1040700038D0022866D003287DD005287CD00728B8
:104080007BD004287AD093E15FF000058DF80C60B6
:104090008DF80D6008A92846FEF7D0FCCDF8008009
:1040A000CDE90147142303AA132108A807F091FBC7
:1040B000642105FB01F0FA21B0FBF1F0C0B28346A8
:1040C00001469EA000F03EFF5846FFF723FCFDF797
:1040D000BBF89AF8000001287ED06D1CADB2FA2D15
:1040E000D4D365E15FF000058DF80C608DF80D60AC
:1040F00008A92846FEF7A2FCCDF80080CDE90147CB
:10410000142303AA132108A807F063FB642105FB0D
:1041100001F04FF49471B0FBF1F0C0B28346014658
:1041200086A000F00FFF5846FFF7F4FBFDF78CF870
:104130009AF800000128CFD06D1CADB2B5F5947F80
:10414000D2D335E15FF000058DF80C608DF80D607D
:1041500008A92846FEF772FCCDF80080CDE901479A
:10416000142303AA672108A807F033FB642105FB89
:1041700001F0962103E018E04AE077E0E8E0B0FBC8
:10418000F1F0C0B2834601466CA000F0DBFE584659
:10419000FFF7C0FBFDF758F89AF8000001281BD084
:1041A0006D1CADB2962DCFD302E100258DF80C60C9
:1041B0008DF80D6008A92846FEF740FCCDF8008078
:1041C000CDE90147142303AA7B2108A807F001FBCE
:1041D000642105FB01F000E088E08900B0FBF1F00C
:1041E000C0B28346014655A000F0ACFE5846FFF72A
:1041F00091FBFDF729F80620FDF73AF89AF8000040
:10420000012873D06D1CADB2B5F5C87FCED3CFE019
:104210005FF000058DF80C608DF80D6008A9284648
:10422000FEF70CFCCDF80080CDE90147142303AA6A
:104230006D2108A807F0CDFA322105FB01F01A2103
:10424000B0FBF1F0C0B2834601463CA000F07AFE1C
:104250005846FFF75FFBFCF7F7FF9AF800000128CC
:1042600044D06D1CADB21A2DD4D3A1E05FF000058F
:104270008DF80C608DF80D6008A92846FEF7DEFB6E
:10428000CDF80080CDE90147142303AA7B2108A8BB
:1042900007F09FFA642105FB01F04FF4F271B0FBC7
:1042A000F1F0C0B28346014624A000F04BFE584610
:1042B000FFF730FBFCF7C8FF9AF80000012804D094
:1042C0006D1CADB2B5F5F27FD2D3FF2278210DF18E
:1042D0002300FBF757FFCDF80080CDE901471423F9
:1042E00003AA712108A807F074FA61E063E040E2D4
:1042F00053746172745F44617772696E675F31698C
:104300006E3534420D0A000053746570350D0A0095
:1043100053746570360D0A0053746570370D0A00CA
:1043200053746172742064617461207472616E737D
:104330006665720053746570380D0A0050726F72B2
:104340006573733A2025642025250D0A00000000BE
:104350005FF000058DF80C608DF80D60FF2279216B
:104360000DF12300FBF70EFFCDF80080CDE90147EA
:10437000142303AA7C2108A807F02BFA322105FB9D
:1043800001F03021B0FBF1F0C0B283460146AFF23C
:10439000540000F0D7FD5846FFF7BCFAFCF754FF75
:1043A0009AF80000012806D06D1CADB2302DD1D393
:1043B0009AF8000008B10F25C6E18DF80C608DF861
:1043C0000D600925ECA052E099F8050060B10128C4
:1043D0000AD0022808D0032806D0072804D00528D0
:1043E00039D0042837D0AFE1CDF80080CDE90147BE
:1043F000142303AA022159A807F0EBF99DF80C0039
:1044000010B99DF80D00E8B199F804004D46401C24
:10441000C0B289F804000A2816D9AFF2905000F013
:1044200091FD02F0E5FC2C714FF4FA70FCF720FFCF
:104430000122D102D248FDF730F805E01DE04FE03F
:10444000B4E0C7E089F804408DF80C608DF80D6089
:104450000A25CCA00BE0CDF80080CDE9014714235C
:1044600003AA022159A807F0B4F91325C8A000F047
:1044700069FD69E1D0E0E9E004E1CDF80080CDE933
:104480000147142303AA022161A807F0A2F99DF8AD
:104490000C0010B99DF80D00C8B199F804004D4604
:1044A000401CC0B289F804000A2812D9AFF2246077
:1044B00000F048FD02F09CFC2C714FF4FA70FCF700
:1044C000D7FE0122D102AE48FCF7E7FF01E089F8F0
:1044D00004408DF80C608DF80D600B25AFA075E0E1
:1044E00099F805004D46052804D0062802D0072873
:1044F00003D006E042F2107001E04FF47A70FCF74E
:10450000B7FEA9468DF80C608DF80D6099F805008E
:104510004D4606284FF0140303AA4FF00201CDF8D0
:1045200000800CD00DF5C470CDE9014707F051F9BA
:10453000FCF7AEFD9DF80C00FF2802D004E008A8AF
:10454000F2E79DF80D00B8B12879462825D9AFF2D9
:10455000C46000F0F7FC02F04BFC0E2589F8044023
:104560004FF4FA70FCF784FE012200E099E0D102DA
:104570008348FCF792FFEEE08BA000F0E3FC0C23F5
:104580008FA210210A20009607F016FE07F03AFFCE
:1045900089F804400C258FA018E0401C287190A0D9
:1045A00000F0D0FC6420FCF763FEABE7CDF80080A0
:1045B000CDE90147142303AA022163A807F009F9F2
:1045C0008DF80C608DF80D600D258DA000F0BAFC03
:1045D000FFF7D8BB8DF80C608DF80D600E2588A014
:1045E00000F0B0FC89A000F0ADFC8DA000F0AAFCAA
:1045F000FCF74EFD0C2390A220210020009607F02E
:10460000DBFD0C2392A210210A20009607F0D4FDB6
:1046100007F0F8FEFFF7A8BB04F064FDFEF7B0F961
:1046200089F80100E8B3564C00224FF4006120469F
:10463000FCF733FF002221152046FCF72EFF022055
:1046400089F80200012065B0BDE8F08F85A000F078
:1046500079FC04F047FDFCF71BFD0C2384A220210C
:104660000020009607F0A8FD0C2386A210210A2046
:10467000009607F0A1FD07F0C5FE4FF47A70FCF735
:10468000F7FDD0E799F8050004282FD005287FF41E
:10469000D4AE00258DF80C608DF80D6027A9284652
:1046A00000E058E0FEF7E6F9CDF80080CDE90147DB
:1046B000142303AA6D2127A807F08BF8322105FBEC
:1046C00001F01A21B0FBF1F03230C0B2834601464E
:1046D000AFF2983000F036FC5846FFF71BF9FCF7B4
:1046E000B3FD6D1CADB21A2DD4D3ADE65FF000055D
:1046F0008DF80C608DF80D6027A92846FEF79EF90D
:10470000CDF80080CDE90147142303AA7C2127A816
:1047100007F05FF8322105FB01F03021B0FBF1F02A
:104720003230C0B283460146AFF2F03000F00AFCEE
:104730005846FFF7EFF8FCF787FD6D1CADB2302D42
:10474000D6D381E60E2D06D04FF4806B59460C4827
:10475000FCF79EFE18B100224FF4806101E00122B7
:1047600059460748FCF799FE002D3FF4A2A9FFF730
:10477000EDB9002067E7000053746570390D0A0039
:10478000000C01405374657031300D0A00000000C8
:104790005374657031390D0A000000005374657060
:1047A00031310D0A00000000452D706170657220E6
:1047B0005265666C617368204F4B0D0A0000000063
:1047C000452D7061706572205265666C617368205A
:1047D0004F4B00005374657031320D0A0000000029
:1047E000452D7061706572205265666C61736869F1
:1047F0006E672C2057616974696E670D0A000000AE
:104800005374657031330D0A00000000452D70614E
:1048100070657220555064617465204F4B0D0A001D
:10482000507265737320616E79206B657920746FA7
:1048300020657869740D0A00507265737320616E8B
:1048400079206B657920746F2065786974000000A9
:10485000452D706170657220555064617465204FFC
:104860004B000000737465702031340D0A000000A5
:104870005265667265736820696E746572727570D0
:10488000746564002020456E6420776974680000B8
:104890002DE9F04FB5B07C2109A8FBF77AFC8E48D2
:1048A0001421006808908DA0006832908CA00068E8
:1048B000339003A8FBF76DFC8A484FF0640B4179F5
:1048C000062901D18DF822B0874900220A7004E040
:1048D000052C02D0062C48D078E0FCF7D9FB814E9D
:1048E000707906282ED10024A0460DF1A00941F2CE
:1048F0006D0A01278DF80C708DF80D7008A92046FF
:10490000FEF79CF8CDE90098142303AA672108A8B4
:10491000CDF808A006F05DFF64206043B0FBFBF01B
:1049200085B2294671A000F00DFB2846FEF7F2FF84
:10493000FCF78AFC6C480078012852D0641CA4B2B1
:10494000322CD7D3DFF8A0A19AF80000002848D174
:104950004FF001098DF80C908DF80D9068A000F0D3
:10496000F1FA0DF1A00841F26D050026CDF80080A6
:10497000CDE90165142303AA022132A806F029FF1C
:10498000FCF762FC9DF80C00072410B99DF80D009F
:10499000A0B154480179491CC9B201710A2915D93D
:1049A0005BA000F0CFFA02F023FA0122D10268489E
:1049B000FCF773FD4B49002008717CE08DF80C90EA
:1049C0008DF80D9063A000F0BDFA11E0072C0FD018
:1049D000082C4AD0092C7DD00E2C6FD00F2C7FF4E0
:1049E00077AF60A000F0AEFA022035B0BDE8F08FDE
:1049F000FCF74EFB3B48407906282AD15FF00004C3
:104A00008DF80C908DF80D9008A92046FEF732F82D
:104A1000CDF80080CDE90165142303AA672108A819
:104A200006F0D7FE64206043B0FBFBF0323087B263
:104A300039462EA000F086FA3846FEF76BFFFCF7E9
:104A400003FC9AF80000012806D0641CA4B2322CA2
:104A5000D6D39AF8000008B10F24B7E78DF80C9070
:104A600008248DF80D9042A031E0CDF80080CDE90A
:104A70000165142303AA022133A806F0AAFEFCF75D
:104A8000E3FB9DF80C0010B99DF80D00C8B1154965
:104A90000879401CC0B208710A2897D91CA000F000
:104AA00051FA02F0A5F90122D1022948FCF7F5FCE0
:104AB0000C4800210171C820FCF7DAFB012094E7C3
:104AC00008E08DF80C908DF80D9009242CA000F0D2
:104AD00039FA7BE7002088E7C4DE0008CD04000037
:104AE000CD060000C8000020AA00002050726F729E
:104AF0006573733A2025642025250D0A0000000007
:104B0000312E35345F53746570360D0A0000000095
:104B1000557064617465206661696C65642C2070F1
:104B20006C6561736520707265737320616E7920A6
:104B30006B657920746F206578697420616E6420DC
:104B400074727920616761696E2E0D0A00000000A1
:104B5000000C0140312E35345F53746570370D0AF7
:104B600000000000737465702031350D0A000000EC
:104B7000312E35345F53746570380D0A0000000023
:104B8000312E35345F53746570390D0A0000000012
:104B9000FCF78EBC30B58FB028216846FBF7F9FAD8
:104BA00014210AA8FBF7F5FA01210804CDE9001049
:104BB0000024029402250491CDE907504FF4E0103F
:104BC00009906846FCF708FE00B1FEE70F20CDE92A
:104BD0000A054FF48060CDE90C4002210AA80E942A
:104BE000FCF70EFD002800D0FEE70FB030BD00003E
:104BF0000D48016841F00101016041680B4A114014
:104C0000416001680A4A11400160016821F4802175
:104C10000160416821F4FE0141604FF41F01816091
:104C20000449C00308607047001002400000FFF80C
:104C3000FFFFF6FE08ED00E00148FDF72CBB000089
:104C4000480F0020F0B50268164B174C174D4FF077
:104C50008047984205D0B84203D0A04201D0A84274
:104C600003D122F070064A683243984205D0B84218
:104C700003D0A04201D0A84203D122F44074CA68F4
:104C800022434C6922F08002224302608A68C26299
:104C90000A688262984201D1096901630121416178
:104CA000F0BD0000002C014000040040000800405E
:104CB00010B5846842EA032224F47F440A43224365
:104CC000826010BD826822F070020A4342F0070140
:104CD0008160704710B5036A046A24F0010404621D
:104CE000846924F0F00444EA021423F00A020A431F
:104CF0008461026210BD10B5036A23F010030362E1
:104D00008369046A23F4704343EA023224F0A00367
:104D100043EA01118261016210BD00002DE9F041FA
:104D2000044600680169E26821F4405111430161C1
:104D30002169A0680843616908432168CA6841F293
:104D40000C639A430243CA6020684169A26921F456
:104D50004071114341611E49206864253226884212
:104D600002D1FCF7F3FC01E0FCF7E0FC00EBC00132
:104D700001EB001160686FF018078000B1FBF0F2E2
:104D8000B2FBF5F2B1FBF0F37A4303EB8202B1FB25
:104D9000F0F306EB0212B2FBF5F2B3FBF5F302F00F
:104DA000F00202EB0312B1FBF0F3B1FBF0F0B0FB49
:104DB000F5F0784303EB800006EB0010B0FBF5F054
:104DC000216800F00F0010448860BDE8F081000009
:104DD000003801402DE9F041984617460E4604463A
:104DE000069D1DE0681C1BD02DB1FCF75BFBA0EB02
:104DF0000800A84214D92068C16821F4D071C160AC
:104E00002068416921F001014161202084F83900C6
:104E100084F83A00002084F838000320BDE8F081CF
:104E20002068006836EA000004D00020B842D9D0DB
:104E30000020F3E70120F9E710B5064C01202070AF
:104E4000FBF790FA18B9207820F001002070207844
:104E500010BD00008400002010B5124890B0144628
:104E60000078C00702D0032010B010BDB9B10129ED
:104E700005D0022908D003290CD00420F4E76846A5
:104E8000FBF726FA0E9809E06846FBF721FA0F981F
:104E9000208004E06846FBF71BFA0F982060002092
:104EA000E2E70000840000202DE9F0411E4617468D
:104EB00008460125094C0A4B32463946FBF768FA89
:104EC00028B109E0641E02D20120BDE8F081FBF7A1
:104ED0002FFA0028F6D100252846F6E7400D0300FA
:104EE00000E1F50510B5064C01202070FBF720FA13
:104EF00018B9207820F001002070207810BD000043
:104F0000840000202DE9F0411E4617460846012581
:104F1000094C0A4B32463946FBF79EFA28B109E0A4
:104F2000641E02D20120BDE8F081FBF701FA0028DF
:104F3000F6D100252846F6E7400D030000E1F5050F
:104F4000FEE700000FB4054B10B503A9044A029810
:104F500000F028F810BC5DF814FB00008171000817
:104F6000F80000200907090E002804DB00F1E0200A
:104F700080F80014704700F00F0000F1E02080F886
:104F8000141D704702E008C8121F08C1002AFAD198
:104F900070477047002001E001C1121F002AFBD1B9
:104FA000704700002DE9FF4F8DB09B460F46044629
:104FB000002606E025280BD05A460F999047641C1E
:104FC000761C20780028F5D111B03046BDE8F08F6E
:104FD0000025A8460122984900E0054314F8013F46
:104FE000203B02FA03F00842F7D120782E2817D18F
:104FF00014F8010F45F004052A280ED06FF02F0297
:105000002078A0F1300109290AD808EB880102EBC9
:10501000410100EB0108641CF2E757F8048B641CA3
:1050200020786C280DD004DC4C2812D06A2811D1CD
:1050300004E074280DD07A280CD10AE045F400155C
:1050400007E0617845F48015814202D1641C05F5C2
:105050008015641C2278692A45D008DC002AB3D068
:10506000582A69D0632A10D0642A08D13BE0702AFC
:1050700067D0732A13D0752A5CD0782A5CD010468A
:105080005A460F999047761CD3E017F8040B8DF819
:10509000000000208DF80100E946012003E057F8E8
:1050A000049B4FF0FF3069074FF0000501D40AE080
:1050B0006D1C45450DDA8542FADB19F8051000290B
:1050C000F6D106E06D1C8542FCDB19F805100029BD
:1050D000F8D12E4404E019F8010B5A460F99904775
:1050E0006D1EF8D2A5E00A200021CDE90801C5F324
:1050F000025002280DD001CFC117031E71F1000329
:105100000DDA4FF0000CD0EB0C006CEB01012D23FD
:1051100008E0FF1D27F00707F7E80201EDE72B0580
:1051200004D52B238DF8283001233BE0EB0739D041
:105130002023F7E70A2000E010200021CDE9080134
:1051400007E01020002145F00405CDE908014FF0EB
:105150000808C5F3025002280FD001CF00214FF0FC
:10516000000A2B071FD5702A0DD0DDE908C38CF08B
:10517000100C5CEA030C0CD015E0FF1D27F00707AC
:10518000F7E80201EBE740228DF828204FF0010AF2
:105190000BE050EA010306D030238DF828308DF85B
:1051A000292002239A46582A04D024A20DF120096E
:1051B0000B9209E026A2F9E7DDE90823FBF72FF8B7
:1051C0000B9B9B5C09F8013D50EA0102F4D1ADEB69
:1051D000090020300890680701D44FF001080899B1
:1051E000884502DDA8EB010000E000208046002594
:1051F00006E00AA85A46405D0F9990476D1C761C40
:105200005545F6DB04E030205A460F999047761C4E
:10521000B8F10001A8F10108F5DC05E019F8010B6F
:105220005A460F999047761C0899481E0890002905
:10523000F4DC641CC5E6000009280100303132337B
:1052400034353637383961626364656600000000C2
:1052500030313233343536373839414243444546AC
:105260000000000010B50446002084F80402401E2F
:10527000C4F82C02204602F0AFFF08B1032010BD95
:10528000B4F8FE01A0F52A41553901D0022010BD25
:1052900094F83600B4F8371040EA01210848B0EB22
:1052A000012F08D094F85210B4F8532041EA02219B
:1052B000B0EB012F01D1002010BD012010BD000076
:1052C0000046415400E0401C02780AB18A42FAD1FB
:1052D000D0B27047F0B50022184B144602EB4206DC
:1052E00053F8265085B1D0F80072BD420DD103EBC2
:1052F0008605D0F808626F68B74206D12D89B0F8EC
:105300000662B54204D000E00124521C022AE5D313
:10531000022A01D079B904E05CB9022909D012202F
:10532000F0BD02EB420003EB80004089B0F5807FC6
:1053300001D00020F0BD1020F0BD000000120020C0
:1053400030B50021064A0C4601EB410352F82350C8
:10535000854201D142F82340491C0229F4D330BDD3
:1053600000120020D0F82422D0F80002490A90F858
:105370000202B1FBF0F0121D02CA19B1884203D338
:10538000401AF8E700207047116808447047D0F8C9
:105390001422891E921E8A4201D800207047D0F83C
:1053A000282290F8020201FB002070472DE9F0410D
:1053B0000F00054606D001F057FF02280BD201204E
:1053C000BDE8F081D5F80C621EB1D5F81402B042E8
:1053D00008D8012606E0411CF2D0D5F8141281420B
:1053E000EED83E463446D5F81402641CA04202D8DA
:1053F0000224022E0AD32146284601F035FF38B197
:10540000411CDDD00128DBD0B442ECD10020D7E72D
:105410006FF070422146284603F02AFC30B957B19C
:1054200022463946284603F023FC20B1012812D039
:1054300001242046C4E7C5F80C42D5F81002411CEF
:10544000F7D0401EC5F8100295F8050240F00100A3
:1054500085F80502EDE74FF0FF34EAE72DE9F84F54
:10546000884682460D6800E06D1C28782F28FBD006
:105470005C28F9D00024DAF820722646A85D761C54
:10548000202817D32F2815D05C2813D0FF2C32D218
:10549000012101F0E1FC5FEA00092CD0B9F1800F95
:1054A00004D2014668A0FFF70DFF20BB27F8149037
:1054B000641CE3E7AA19C8F80020202801D20425BB
:1054C00017E0002515E000BF07EB440030F8020CA0
:1054D00020280DD02E280BD06CB1002027F8140006
:1054E0000B222021DAF8180202F06FFE002606E0F7
:1054F000641E002CE8D10620BDE8F88F761C37F832
:1055000016002028FAD02E28F8D01EB145F0030549
:1055100000E0641E2CB107EB440030F8020C2E288A
:10552000F7D1002081464FF0080B009037F81600A5
:1055300006F101065FEA000824D0B8F1200F04D07C
:10554000B8F12E0F04D1A64202D045F00305EDE7D5
:105550000098584501D2A6421AD1BBF10B0F0FD0CB
:10556000A64201D045F003050CD84FF0080000908A
:105570004FEA896026464FF00B0B4FEA1069D5E7DA
:1055800045F00305DAF818020178E52938D039E04A
:105590004046B8F1800F10D3002101F05DFC5FEAB6
:1055A000000805D02B4901EB080010F8800C80465C
:1055B00045F00205B8F1000F04D0014626A0FFF720
:1055C00081FE20B14FF05F0845F003050FE0A8F120
:1055D0004100192802D849F0020908E0A8F1610049
:1055E000192804D8413049F001091FFA80F8DAF887
:1055F0001822009902F801800098401C009095E75D
:1056000005210170BBF1080F03D14FEA89604FEA11
:105610001069C9F38100032803D06FEA09018907E3
:1056200001D145F00205A90709D409F003010129B8
:1056300001D145F01005012801D145F00805DAF83F
:105640001802C572002057E7222A3A3C3E3F7C7F71
:1056500000000000A6CE00082B2C3B3D5B5D000047
:10566000401E022815D20C4B00EB400203EB8201D6
:105670004889B0F5807F05D008B1401E80B24881CE
:1056800010B104E00020FAE7002043F822000020D7
:1056900070470220704700000012002010B586B04D
:1056A0001C4601908DF8081000208DF80B008DF835
:1056B0000C008DF809008DF80A0014208DF81400F4
:1056C0000948049003218DF800200E208DF80D105C
:1056D0008DF8010004F062FC22460221684604F0C5
:1056E00083FC06B010BD0000270000202DE9FF411B
:1056F0003E4E01213046FBF7CBFE01273C4C0025F6
:1057000028B104213046FBF7C3FE60B112E0607897
:1057100080F001006070A57001213046FBF7B8FEF3
:105720000028F9D006E0277004213046FBF7B0FED0
:105730000028F9D02E48A178401D4FF49676405CA1
:1057400070B1012823D0022827D0032806D106F003
:1057500099FB002802D006F06BFCA770BDE8FF8122
:1057600003F0C0FC06F064FC3046FBF781FD607876
:1057700038B120A0FFF7E6FB002006F08FFB0320E6
:1057800003E0A078401C00F00300A070E6E700F002
:1057900019F92820FBF76CFDF3E700F05BF900F046
:1057A00011FA8DF80C5005F068FE03F0A9FC0020FA
:1057B00005F0B0FD88B903AA6946012005F0BEFDD9
:1057C00058B99DF80C0040B108210DF1010001F01D
:1057D0002FFE01460DA0FFF7B5FB00F055FA00F0D3
:1057E000BFFA3046FBF744FDA570B7E70010014053
:1057F00008000020476F696E6720746F2057616B47
:10580000657570206D6F64652E0D0A005354323536
:105810005442206361726420666F756E642E205559
:1058200049443A2025730D0A000000002DE9F04795
:105830008EB09A46DDE916762E4B89460593ADF873
:10584000182090F84A108DF8341050F8301F0A9143
:1058500041680B91408AADF83000FF20ADF832006E
:1058600003F20340CDE90706154600F20340099014
:10587000FF2D01D82A4601E04FF480724946D81C1A
:10588000FAF760FC142209A96846FAF75BFC05AC3C
:1058900094E80F0004F0FEF906F0E6FB03F07EFF4B
:1058A00004460228F8D00CB113A004E00798318810
:1058B000C01C01F0BDFD80462946484601F0B8FDF8
:1058C00002460CB10DA100E00EA143460EA0FFF769
:1058D00039FB1CB120460EB0BDE8F0873288BA42D1
:1058E00000D33A4607995046C91CFAF72BFC002012
:1058F000F1E7000004030020000000004641494C8D
:10590000000000004F4B00002049534F2D444550EC
:1059100020547852782025733A202D2054783A204C
:1059200025732052783A202573200D0A00000000CC
:10593000F0B589B01E46DDE90E75214B4FF0000E23
:1059400003F20344CDE902450093ADF804208DF83D
:105950001EE090F810C0CCF3011C4FEA8C1C0CF137
:10596000400CBCF1FE0F01D34FF0FE0CADF81CC093
:10597000D0F848C0CDF814C0C06C069008A80490B8
:105980008DF806E0FE2A00D3FE22581DFAF7DAFB56
:10599000684604F0D7FB00BF06F066FB04F0F6FA99
:1059A0000228F9D0002808D12A88BA4200D33A4602
:1059B000611D3046FAF7C6FB002009B0F0BD0000BB
:1059C0000403002010B502221146092005F0E0FB77
:1059D000012005F0B5FB402005F0B8FB002005F0E4
:1059E000BFFB0E4805F0C8FB03F08AFB0C4B0122FD
:1059F0000A210C48FFF752FE18B103F073FB002098
:105A000010BD07480A21801C01F012FD014606A0C6
:105A1000FFF798FA00F028FA012010BD10350600B3
:105A2000100C00201D0000204E4643204163746985
:105A30007665205032502064657669636520666F14
:105A4000756E642E204E46434944333A2025730D2B
:105A50000A00000010B588B0002404F06DFC03F0CB
:105A60004FFB07A9002004F07BFD00284BD106ABBB
:105A70006A46012104F0B3FB002844D19DF81800C8
:105A8000002840D09DF8001001246846012912D05A
:105A90009DF80410401D01F0CBFC01461BA000BF87
:105AA000FFF750FA9DF8000040280BD0602809D07D
:105AB00020281AD027E00421113001F0B9FC01465A
:105AC0001CA0EDE7284B00220A212848FFF7E6FD3D
:105AD000C8B925480A21801C01F0AAFC014624A06F
